:020000022000DC
:1060000000000120753A0300B53A0300B73A0300D7
:10601000B93A0300BB3A0300BD3A03000000000098
:106020000000000000000000000000000139030033
:10603000C13A03000000000021390300C53A030003
:10604000C73A0300C73A0300BD0E0300C73A030076
:10605000C73A0300C73A0300C73A0300C73A030030
:10606000C73A0300C73A0300C73A0300C73A030020
:10607000C73A0300C73A0300C73A0300C73A030010
:10608000C73A030059360300C73A0300C73A030072
:10609000C73A0300C73A030045930200C73A03001A
:1060A000C73A0300C73A0300C73A0300C73A0300E0
:1060B000C73A0300C73A03000000000000000000D8
:1060C000C73A0300C73A0300C73A0300C73A0300C0
:1060D000C73A0300C73A0300C73A030000000000B4
:1060E00000000000000000000000000000000000B0
:1060F00000000000000000000000000000000000A0
:10610000000000000000000000000000000000008F
:10611000000000000000000000000000000000007F
:10612000000000000000000000000000000000006F
:10613000000000000000000000000000000000005F
:10614000000000000000000000000000000000004F
:10615000000000000000000000000000000000003F
:10616000000000000000000000000000000000002F
:10617000000000000000000000000000000000001F
:10618000000000000000000000000000000000000F
:1061900000000000000000000000000000000000FF
:1061A00000000000000000000000000000000000EF
:1061B00000000000000000000000000000000000DF
:1061C00000000000000000000000000000000000CF
:1061D00000000000000000000000000000000000BF
:1061E00000000000000000000000000000000000AF
:1061F000000000000000000000000000000000009F
:10620000F1EE103A43F08073E1EE103A704700BFB0
:1062100010B5054C237833B9044B13B10448AFF3E0
:1062200000800123237010BD5438002000000000BE
:10623000D491030008B5034B1BB103490348AFF3E6
:10624000008008BD0000000058380020D4910300F1
:10625000154B002B08BF134B9D46A3F5803A002138
:106260008B460F461348144A121A0FF011F80F4BC1
:10627000002B00D098470E4B002B00D098470020F1
:10628000002104000D000D48002802D00C48AFF397
:1062900000800EF093FF200029000DF03FFC0EF06F
:1062A00067FF00BF000008000000012000000000A0
:1062B0000000000054380020505B00200000000067
:1062C0000000000010B5014688B00F4C0F4803F0E5
:1062D00031F8002320226946CDE90033CDE90333AC
:1062E000CDE905330293079301F0C0FD084920462C
:1062F0000AF098FA694620460AF0C2FA01210A20FB
:106300000EF070FA08B010BD4C500020B03B0020D9
:106310006887030000210A200EF064BA0000000024
:106320002DE9F84FC64DC7492868C74C421C81FB70
:106330000263A3EBE27303EB4303A2EB43032B6083
:10634000C24A256802EB8000042D80ED000A00F3AC
:106350008E80DFF840E3DFF84083DEF80090BC4831
:10636000DFF814C30368BB4E09F1010708EB890984
:106370004FF0000AC9F800A0DFF80493DCF800A091
:1063800099ED007A08EB8308D8ED007AA7EEA77A9A
:1063900002EB8A0286FB0768D2ED007AAE4A89EDED
:1063A000007A0AF1010692ED007A08EB070A81FBF8
:1063B00006B14FEAE778C8EB2A18A1EBE67177EE51
:1063C000877AC8EB481801EB4101A7EB0807A6EB59
:1063D0004101CEF80070CCF80010C2ED007A9D4A61
:1063E000DFED9E7A9E4E013382FB0312D118DA173D
:1063F000C2EB2112C2EB42129B1A0360C6ED007A77
:10640000984E994A96ED007A1378B4EEE77AF1EE59
:1064100010FA05F1010544BFB0EE677AC6ED007AC7
:106420002560002B00F0A6809049914C0B68013349
:10643000632B0B6040F3B380D4ED006AF4EEE76A9F
:106440000023F1EE10FA13700B6000F19C80F4EE63
:10645000C77AF1EE10FA00F39E80864D2B685A1C25
:10646000F92B2A6000F3AB800020BDE8F88F824B47
:1064700079481B6890ED007ADFF81892DFF81CC2AB
:10648000DFED7E6ADFF8CCA1DFF80C827C4F02EBF7
:1064900083015E1CD1ED007A591F48BF314602EBE3
:1064A000810177EE877A91ED007AD91E48BFD91C19
:1064B00002EB810277EEC77A92ED007ACCF80010F9
:1064C000D9F80010C0ED007AA7EEE67A60484A1CC1
:1064D0008AFB02BA0368D7ED007A0AEB020B08EBDD
:1064E00081014FEAE27A81ED007ACAEB2B1A08EBC0
:1064F000830B54499BED007A81FB06E1E7EE077AB6
:10650000CAEB4A1AA2EB0A02A1EBE67101EB4101C8
:10651000C9F80020584AC7ED007AA6EB41011D2DAD
:1065200011607FF75CAFB3F11E0143D4CCF80010CB
:106530005A1C08EB8108474B98ED007A484E83FBC4
:1065400002139918E7EE477AD317C3EB2113C3EB75
:106550004313D21AF92D0260C7ED007AC6ED007A16
:106560007FF74EAF404A3F4E137896ED007A002BEE
:106570007FF45AAF3E4CD4ED006AF4EEE76AF1EED8
:1065800010FA7FF564AFF4EEC77AF1EE10FAC4EDBD
:10659000007A7FF762AF01201070BDE8F88F94EDAC
:1065A000007AB4EEE77AF1EE10FA7FF556AFC4ED5B
:1065B000007A52E75A1CCCF800201146B9E731495D
:1065C00000200AF0C7FC07EE900A9FED2F7AF8EE44
:1065D000E77A67EE877A17EE900A0EF059FB14A35C
:1065E000D3E9002311F0A2FD13A3D3E900230EF099
:1065F000F1F90EF0A5FB07EE100AF7EE007AD6EDE2
:10660000005AD4ED006A9FED216A214B236077EE9A
:10661000C77A66EE866A67EEA57A0020E7EE267AEC
:106620002860C6ED007ABDE8F88F00BFAFF30080A8
:106630000BD7A3703D0AB73F9A9999999999B93F99
:10664000D83A0020ABAAAA2A6C3B0020BC3A002012
:10665000583B002043082184603B002000000000DC
:10666000683B0020803B0020883B0020843B0020CA
:10667000943B0020903B0020D43A0020CDCC4C3EEF
:10668000643B002000E1F50577CC2B32CDCCCC3E2D
:10669000809618CB5C3B0020DC3A00207C3B00203D
:1066A000F0B505468DB01D200EF0B2F8012804D0DB
:1066B0001E200EF0ADF8012860D1374E002109AC44
:1066C0000A22204631600AF087FC214633480AF04E
:1066D00057FD20460AF026FD96ED000AB8EEC00AE6
:1066E000FFF71EFE2E4B187000284DD12D4F38603D
:1066F0002A4968460AF056FC2B4968460AF0B0FD64
:106700002A4B064693ED000A03A802210AF0CCFCAE
:1067100003A930460AF078FD23490AF0A1FD0A22B8
:106720003968064606A80AF057FC06A930460AF062
:106730006BFD1D490AF094FD06460AF01BFE0A2275
:10674000014620460AF07CFC214630460AF05CFDFA
:106750000A210AF0B5FD014628460AF023FC20462E
:106760000AF0E0FC06A80AF0DDFC03A80AF0DAFC57
:1067700068460AF0D7FC28460DB0F0BD1F200DF08A
:106780006BFF054E01469AE70AF0F4FD084B054FF2
:10679000186001233B60ABE78C3B0020B03A00203F
:1067A000803800207C38002078870300683B002078
:1067B000843800202DE9F843254EDFF8C080254CB1
:1067C000254D264FDFF8B890314640460AF0D0FB01
:1067D0002246294640460EF093FC314638460AF0E0
:1067E000C7FB2246294638460EF08AFCDFF8948023
:1067F0001B4F314648460AF0BBFB22462946484615
:106800000EF07EFC404602F011FF22461549164E5E
:10681000164D40460EF074FC384602F0A1FF2246A9
:10682000134938460EF06CFC30464FF4807103F08B
:10683000EDFB22460F4930460EF062FC284602F07E
:10684000DDFD224628460C49BDE8F8430EF058BC51
:10685000508803000036002025110300B03A0020C4
:1068600068390020456A0200B039002088380020CD
:106870002D6A0200A1A00200056A0200A43A0020CD
:1068800070380020F8380020F8B52D4C2D4D2E4ED4
:106890002E4F2046012102F00BFD2046042102F07C
:1068A00015FB00222046012102F040FB2046042176
:1068B00002F0C2FC2046264901F024FD254920466D
:1068C00001F022FD244802F0D7FE28462349152274
:1068D00002F042FF12222249284602F039FF2846E0
:1068E00002F074FF304603F01FFC384604F52275B1
:1068F00002F0A8FD3846642102F078FD0621284602
:1069000000F00CFA284600F0F1F93146284600F074
:10691000A9F904F5337000F0BBF92846012100F015
:1069200031FA2846F422202100F028FA28461E21B8
:1069300000F022FA28460021BDE8F84000F08EBAA7
:10694000B03B002068390020B03900208838002092
:10695000C562020015630200F83800207C8703003E
:106960009487030008B525484FF4E1310AF0A0F8F8
:1069700000211D200DF09EFE00211E200DF09AFE2C
:1069800001211C200DF096FE01211C200DF02AFF94
:1069900001211B200DF08EFE01211B200DF022FF96
:1069A00001210A200DF086FE01210B200DF082FE50
:1069B0004FF47A700AF0EAFC01210A200DF012FF70
:1069C0004FF4FA600AF0E2FC00210A200DF00AFF01
:1069D0004FF47A700AF0DAFC01210A200DF002FF70
:1069E0004FF47A700AF0D2FC00210A200DF0FAFE72
:1069F000FFF74AFF024B01221A6008BD4C500020ED
:106A0000743B002010B5074B044640F8183B00F0DB
:106A100087FB2046044B40F8083B01F0A3FF2046CB
:106A200010BD00BF88880300E487030010B5044B45
:106A3000044640F8083B01F095FF204610BD00BF1A
:106A4000E487030010B5074B044640F8183B00F0FC
:106A500067FB2046044B40F8083B01F083FF2046CB
:106A600010BD00BFDC880300E487030070B54A4D09
:106A70002B68012B86B019D0022B15D16C464749E3
:106A800020460AF075FA464802F010FF002832D17D
:106A9000444920460AF042FC064620460AF042FBE2
:106AA000002E48D001232B6006B070BD3E4C3F48FD
:106AB0003F49404A002323606C4603600B60002678
:106AC0003649166020460AF053FA354802F0EEFEC9
:106AD00008BB394920460AF021FC064620460AF048
:106AE00021FB002EE0D002232B600AF043FC334B45
:106AF000186006B070BD2A4802F028FF0A2201463D
:106B000003A80AF069FA03A920460AF05BFB03A870
:106B10000AF008FBBCE7224802F018FF0A220146EF
:106B200003A80AF059FA03A920460AF04BFB03A870
:106B30000AF0F8FACDE702200AF028FC03A8FFF7D4
:106B4000AFFD03A91E481F4C0AF01AFB03A80AF068
:106B5000E9FA1D4A23681268013393422360A3DDDA
:106B60000AF008FC154B1B68C01A42F20F739842DA
:106B70009AD8164D124903A80AF014FA03A9284618
:106B80000AF0D8FAAA682968114802F02FFF03A872
:106B90000AF0C8FA266087E7743B0020508803009B
:106BA000B0390020288C0300803B0020603B00208F
:106BB000643B00206C3B0020EC880300783B002005
:106BC00070380020703B002004360020A43A0020DA
:106BD000C839002072DF704773DF704777DF704776
:106BE00038B5054608460C4601F0EAFE102803D0E9
:106BF00080280ED0012038BDEB7FA2881B2B0EDC35
:106C0000E9180320E85448704A80EB7F0433EB779F
:106C1000F0E7A368002BEDD0E97F0D2901DD00200E
:106C200038BD6A18112068540721517058681C68D3
:106C30009968DB68C2F80E30C2F80600C2F802405C
:106C4000C2F80A10EB7F1233EB77012038BD00BF8A
:106C500010B500210446C1771F220EF019FB204613
:106C600010BD00BF30B5D1E9042485B0CD68074B15
:106C700000936946CDE902240195FFF7B1FF044670
:106C8000684601F06FFE204605B030BDFC8703006A
:106C9000F0B589B0064620221348694602F0B8FADA
:106CA000F37FC2181D2A0CDDC3F11D04E4B2E21803
:106CB0001D2A4FF00005D8BF082705DD284609B07A
:106CC000F0BD044601250927F218601CF0546946FE
:106CD0005770901C22460EF0B3FAF27F0232144431
:106CE0002846F47709B0F0BDB03B002010B504464B
:106CF000094802F0D9FAE37F1C2B01DD002010BD0A
:106D0000E2180221E1540A2390705370E37F0333A9
:106D1000E377012010BD00BFB03B0020C27F1C2ADA
:106D200001DD0020704710B403469C1802209854DF
:106D30000120A1706070DA7F0332DA775DF8044BCE
:106D4000704700BF10B51F22044600210EF0A0FAC4
:106D5000064B0749074A23620023E377C4E90C1274
:106D6000C4E90E33E3622364204610BDFF01010035
:106D70002000F40020001E00C18670470186818635
:106D80004286704780F82210704700BFF0B502EBD2
:106D9000820389B0154603EB830390F821209B0002
:106DA00004460020CDE90410ADF81430931E029083
:106DB000CDE906000E4603908DF80820092B09D86E
:106DC000DFE803F00505080808050805080504F1D3
:106DD000240303931D4B1A68D20709D41C491D4A8A
:106DE000C87FE77F908101201460916097801860D0
:106DF000184902AA04F12000FFF7ECFE10B10020B0
:106E000009B0F0BD94F820101348019102F04CFA3B
:106E1000019902460120FFF7E1FE0028EFD194F826
:106E200020000121FFF7D8FE0028E8D10A4802F02F
:106E300099FA628FA686AA424FF0010094BF921A77
:106E4000521B628784F8230009B0F0BD983B0020F4
:106E50007C3E00209C3B0020B03B0020F0B500238E
:106E600061F30F03044661F31F4389B08363FA2182
:106E70002F4802F021FAE58E94F82110268E049610
:106E800005EB850303EB830300229B000592ADF81D
:106E900014308B1E0292CDE9062203928DF8081061
:106EA000092B09D8DFE803F00505080808050805DF
:106EB000080504F1240303931E4B1A68D20709D472
:106EC0001D491E4AC87FE77F9081012014609160B0
:106ED00097801860194902AA04F12000FFF77AFE92
:106EE00010B1002009B0F0BD94F8201010480191B5
:106EF00002F0DAF9019902460120FFF76FFE00283F
:106F0000EFD194F820000121FFF766FE0028E8D1B8
:106F1000074802F027FA638FA6869D424FF00100D2
:106F200094BF5B1BDB1A638784F8230009B0F0BDB4
:106F3000B03B0020983B00207C3E00209C3B002082
:106F400030B50B888D88112B85B0044605D0262BD3
:106F500033D0102B25D005B030BDC36AEB40DB0722
:106F6000F9D52E4801F0AEF90028F4D1E36A94F87F
:106F70002310012202FA05F523EA0503E362002942
:106F8000E9D194F82230002BE5D0238F2348638782
:106F9000FA2102F091F9E28E218E2046FFF7F6FEEB
:106FA000D9E7CB7B012BD6D1C26A03FA05F515438D
:106FB0000023C56280F82330CDE70B7A012BCAD1BC
:106FC000002380F823304FF4FA71144802F074F96A
:106FD000238F5BB1658F95B1236C0BB19847658F9B
:106FE000618E2A462046FFF7D1FEB4E7236C03B139
:106FF0009847618E00222046FFF7C8FEABE707489E
:1070000002F0C4F9E26B002AA5D0009503AB294633
:10701000284603950DF074F89DE700BFB03B0020B3
:1070200075DF704710B44FF010144FF44801002280
:10703000C0E90041C0E902225DF8044B704700BF7F
:10704000014800F041BF00BFF03E0020F8B5002528
:107050000D4F2E4601E0142D14D0A9B2384602F08F
:1070600069F9013504460028F5D000F0D1FD00286B
:10707000F1D0204600F0D6FD022804BF0136F6B25A
:10708000142DEAD13046F8BDB03B002070B58E8893
:107090001B480C4694B0314602F04CF923881A2B59
:1070A00005D01F2B1CD0102B0FD014B070BD05467F
:1070B00000F0B0FD0028F8D0284600F0ADFD002813
:1070C000F3D1284600F018FEEFE7694600F0FCFD1A
:1070D0000028EAD06A4631460A4801F059FBE4E745
:1070E00054F8080F61686B4603C33046BDF80030A2
:1070F000ADF802306946FFF793FF14B070BD00BFD2
:10710000B03B0020D03B0020AADF7047ABDF7047C8
:10711000ACDF7047ADDF7047AEDF7047B0DF704760
:1071200010B5044B044640F8043B01F01BFC20461C
:1071300010BD00BFB487030010B5054B044640F8EE
:10714000043B01F00FFC20460CF022FD204610BD50
:10715000B487030070B57B4B04461B68836196B00F
:10716000043001F03DFC94F82E30A06913F0320297
:1071700008BF84F82F2013F00C0308BF84F83030C8
:107180000DF10102694601F0E3FB94F82F209DF810
:10719000010015070DD09DF8001002F00F0301F05B
:1071A0000F059D424FEA12126DD243EA021284F893
:1071B0002F2094F8303019070BD003F00F0100F0A6
:1071C0000F058D424FEA131369D241EA031384F885
:1071D000303094F82E1011F0300340F096800FAD4F
:1071E0000F93C5E90133C5E903338DF83C10AB615A
:1071F0000021ADF809109DF80A10206A14930123AC
:1072000063F342018DF808208DF80A1008B1037865
:1072100073BB94F8263013B104F12603129394F84B
:1072200031200023D2070893079358BFE38AADF8B3
:107230001C3004F1080004F12F01CDE9050154BF11
:107240001846E08AADF82000294604F13203E569CA
:10725000099505AA0020FFF757FF054628B994F8BD
:10726000253043BB237D002B64D0284616B070BD6B
:1072700010900EF03EFF02AB80B2ADF84400ADF8C6
:1072800046001393C5E74FEA111101D191428CD307
:107290000A462B4643EA021284F82F2089E74FEA78
:1072A000101001D1984290D30346294641EA0313B6
:1072B00084F830308DE7ADF80D009DF80E2094F87D
:1072C0002F600C90012363F3420242F608118DF8FF
:1072D0000E208DF8123004AA0223ADF8101003A975
:1072E0000D90ADF83030ADF834300A9204F124033B
:1072F0000B910DF102020AA98DF80C600E93FFF7B5
:1073000005FF0028AED00546AFE70F4B8DF80520EE
:107310000FAD1B788DF80430022000230F938DF8F9
:107320000600C5E90133C5E90333AB618DF83C10B4
:1073300001AB5DE72146054800F086FF284616B000
:1073400070BD00BFAC3B0020A8870300383C002084
:107350002DE9F0410B888E88502B8AB00C460546EB
:1073600009D0512B04D18B79012B19D0022B26D0B7
:107370000AB0BDE8F081CB88428E9A4235D0EA8EC1
:107380009A42F5D16B6D002BF2D095F84420648AB7
:10739000920700F18A802246294630469847E7E75F
:1073A000836C002BE4D090F84420520701F10807C9
:1073B0006CD43A46294630469847A379D6E7A27B53
:1073C000042A46D0062A20D0012AD1D1EB6C002B0A
:1073D000CED095F84420170704F1080400F1A580E9
:1073E0002246294630469847C2E7076D002FC6D08F
:1073F00090F84430D90768D404F11208238A424631
:1074000029463046B847E388B9E7EA6B002AAFD08F
:10741000002202A93046CDE90222CDE90422ADF8CE
:107420000C208DF80830FFF779FE2C6D54B195F8DB
:107430004430D80700F19280B5F84230EA6B30460C
:107440002946A047E86B09F0C9FF0023C5E90F33BF
:107450008EE7E86B002878D0B5F84010278A628A5A
:1074600007EB020C00234FF0020E8C45CDE90633EA
:10747000CDE908338DF818E039DD40F20913ADF895
:107480001C3006A93046FFF749FE71E703211A4672
:10749000009106AB08213846CDE9066508970CF047
:1074A0002FFE002889D1AB6C83E7032000211A4608
:1074B000009006AB0846CDE9066508940CF020FE66
:1074C00000287FF455AF6B6D65E7218A069604F1BD
:1074D0001208042300933A46404606ABCDE90881E2
:1074E00007950CF00DFE00288DD12F6D86E79DF8D5
:1074F0001EC0ADF81C3004F114014CF001033844F7
:10750000ADF822208DF81E300991ADF820700DF0F5
:1075100097FE238A618AB5F842200B449BB29342BE
:1075200038BF1346A5F84230ABE703211A46009155
:1075300006AB0E212046CDE9066508940CF0E0FD6F
:1075400000287FF415AFEB6C4AE74FF4806009F038
:107550002BFF4FF48061C5E90F017FE7E86BB5F8B9
:107560004210069604230093224606ABCDE907504D
:1075700009910CF0C5FD00287FF464AF2C6D5BE72A
:107580002DE9F04F0F464FF6FF718F4289B0064646
:1075900015461C4626D0F18A96F82E308C4228BF1C
:1075A0000C46DB0615D40DF1100B8C4228BF0C469F
:1075B0004FF00008718EADF810405A464FF6FF703C
:1075C0000595ADF81280FFF7A3FD404609B0BDE870
:1075D000F08F3948394601F095FE08B1F18E31B986
:1075E000F18AE0E7344801F099FE0746D3E700202E
:1075F00002230DF1100BADF81200ADF810305A4611
:107600000DF10E0338460593FFF784FD43F2014365
:1076100098424FD000284AD19DF80E8008F001080A
:10762000B8F1000F46D02448394601F083FE824667
:10763000A0B300F0F9FA033883B2002CC5D0CDF81E
:1076400004804FF00009984605E0BDF80E30E41ABA
:10765000A4B21D4444B3504600F004FBA0450346C9
:107660004246594628BF22463846BBB1ADF80E20E7
:107670004FF00102738E8DF812200DF10E02CDE94C
:107680000625CDF813908DF81790ADF81030FFF760
:1076900043FD0028D9D0504600F0EEFA4FF0000824
:1076A000404609B0BDE8F08FDDF804808DE700F0BA
:1076B0000108B5E7F18A78E7B03B002010B5154B1B
:1076C000044640F8043B01F055F9134A00231278B0
:1076D00084F8443014200321A384C4F82630C4F86D
:1076E0002A3084F82E30E082C4E90F33C4E9123323
:1076F000C4E9143384F831102375A3612362E36174
:1077000063866363238784F82F2084F83020204623
:1077100010BD00BFB4870300A887030070B44E6893
:10772000164A86600260D1E90262154B154D1C783D
:1077300045600261142500220321C0E90F22C0E93F
:107740001222C0E91422C660C58280F8311080F888
:1077500044200275826102628284C0F82620C0F84B
:107760002A2080F82E20C26142864263028780F878
:107770002F4080F8304070BC704700BFB4870300D2
:10778000A8870300FC87030010B4D1E90142CB684D
:107790000361C0E902425DF8044B7047806970479D
:1077A00001230375704700BF80F82E10704700BF9B
:1077B000C182704741B190F83130C182002262F33A
:1077C000000380F83130704790F83130012262F3C5
:1077D000000380F83130704780F82F1080F8302097
:1077E000704700BF90F84430016562F3000380F8F1
:1077F0004430704710B490F8443090F83140C16480
:10780000003918BF012161F3041462F3C30380F847
:10781000314080F844305DF8044B70470162704796
:1078200051F8322F026049684160704730B5C48A10
:1078300083B0944223460D4628BF1346418E0195DE
:1078400000246A464FF6FF70ADF80030ADF80240F4
:10785000FFF75EFC18B9BDF8000003B030BD20464C
:1078600003B030BD30B5C38A85B00A46012B28BFAE
:107870000123418E8DF8072000240DF1070502AA8F
:107880004FF6FF70ADF80830ADF80A400395FFF7EA
:107890003FFC18B9BDF8080005B030BD204605B062
:1078A00030BD00BF30B5C38A85B00A46022B28BF61
:1078B0000223418EADF8062000240DF1060502AA30
:1078C0004FF6FF70ADF80830ADF80A400395FFF7AA
:1078D0001FFC18B9BDF8080005B030BD204605B042
:1078E00030BD00BF90F82E3013F0100301D11846C0
:1078F000704730B5044685B011480D4601F002FDD1
:1079000010B1E18E11B9084605B030BD0DF1060386
:1079100028460024022502AA0393ADF80A40ADF8D8
:107920000850FFF7F7FB43F20143984206D008B92D
:107930009DF8060000F0010005B030BD2046E3E7E9
:10794000B03B002010B490F82E4014F0100403D087
:107950005DF8044BFFF714BE20465DF8044B7047FA
:10796000A1DF7047A3DF7047A4DF70470023838344
:10797000704700BF006A00F0E3B800BF808B70471B
:107980002DE9F0410B88CE88382B86B00C46054691
:1079900006D0392B66D0362B43D006B0BDE8F08137
:1079A00000F12407002E36D10A8A3846314602F00B
:1079B0007FFC94F80C80B8F1010F2CD0B8F1040FC3
:1079C000EBD1286A00F0BCF801465C4801F0B2FC3B
:1079D00000F02AF92A8E053883B2934228BF134655
:1079E000002B00F09A80218AE289286AAC8B8DF8FE
:1079F0000D600A44E96A05918DF80C80ADF81230EB
:107A0000ADF81020ADF80E4000F09AF803A9FFF78A
:107A1000A9FF0028C1D0384602F062FC06B0BDE8DC
:107A2000F081006A00F08CF80146444801F082FCC5
:107A300000F0FAF807466EBB05F12406E2893046ED
:107A400004F1100102F034FC2B8E2BB1F81EE389F7
:107A500080B20138834255DA304602F041FC06B06C
:107A6000BDE8F0810B7B012B1AD0022B95D1836BE3
:107A7000002B92D090F83C208F8892071FD401F100
:107A80001006E28931462846984761893846FFF753
:107A90006BFF82E705F12407384602F021FCBDE7C1
:107AA000436B002B3FF479AF90F83C20D10717D4FB
:107AB00004F11006E2893146284698476DE7C989E6
:107AC000039004F1100603201A46009003AB3046E1
:107AD000CDE904610CF014FB0028D6D1AB6BD0E7E4
:107AE000E189039004F1100603201A46009003ABCD
:107AF0003046CDE904610CF003FB00287FF44DAF64
:107B00006B6BD7E7286A00F01BF86A8EA98B92B2DC
:107B1000FFF726FF00289FD13FE7AA8B286AADF820
:107B20000E2040F20511ADF80C10CDE9043300F041
:107B300007F803A9FFF716FF6DE700BFB03B002071
:107B40008088704776DF70478FDF704790DF70471F
:107B5000B1DF7047B5DF704710B5074B03600446CF
:107B6000806A0AF0E7FAE06A0AF0E4FA206B08B1EA
:107B70000AF0E0FA204610BDCC87030010B5094B8F
:107B800003600446806A0AF0D5FAE06A0AF0D2FA85
:107B9000206B08B10AF0CEFA20460BF0F9FF204620
:107BA00010BD00BFCC87030070B504460D4692E8B7
:107BB0000300A5800E0CA061A183144DA6771720A9
:107BC0001B2156892560E0809589D089E181D17992
:107BD0006581012222752274A081617418461946BC
:107BE00026819DF8105009F0C3FC2946A062284662
:107BF00009F0BEFC4FF4885100234FF6FF72E1827A
:107C0000E062628223636375204670BDCC87030007
:107C1000007D7047407D7047C07D113818BF01203E
:107C2000704700BF407C7047C0887047008970472C
:107C30004B7D10B44BB11F310C688A888B7904607E
:107C400082805DF8044B837170471831F4E700BF00
:107C500008B513218088FFF775FFB0FA80F040095E
:107C600008BD00BF08B56621806A0AF0DBF800385D
:107C700018BF012008BD00BF08B500231A461946E9
:107C8000806A09F0A7FC003818BF012008BD00BFBA
:107C9000818800F11F02407C02F068BB38B50A46BB
:107CA00005460C468188407C02F04CFB21460120B1
:107CB00051F8483FC5F81F308B888A7985F8252010
:107CC000A5F82330687538BD38B50A4604460D4618
:107CD00000F11801407C02F07FFB607550B129462D
:107CE00051F8483FC4F81F308B888A7984F82520E2
:107CF000A4F8233038BD00BF10B5447D24B100F195
:107D00001F01407C02F046FB204610BD70B50B8879
:107D1000113B82B00C460546462B2BD8DFE803F01A
:107D2000383B2A2A2A2A2A2A2A422A2A2A2A2A2A7C
:107D300050585E642A2A2A2A2A2A2A2A2A2A2A2AE1
:107D40002A2A2A2A2A2A2A2A2A672A942A2A2A2AEC
:107D50002A2A2A2A2A2A2A2A2A2A2A2A2A2A2A2A83
:107D60002A246A2A752C84000023A8881A461946FA
:107D7000FFF7EEFE02B070BD8B79002BFAD1006BDD
:107D8000AB750028F6D01A46194609F023FCF1E736
:107D900000230375EEE74B8903818B894381CB89EF
:107DA0008381E7E70B7AC375112BE3D0818800F15B
:107DB0001F02407C02F0C8FB03460028DAD1D4E75A
:107DC000002301A98088ADF80430FFF7BDFED1E79C
:107DD0000B7A002BCED14B7A0374CBE700221146ED
:107DE0008088FFF7B3FEC5E70B89C381C2E74B89E3
:107DF000C380BFE7006B0123AB750028BAD0002316
:107E00001A46194609F0E6FBB4E7417C164801F032
:107E100089FAE3880146994228BF194689B2A888A1
:107E2000E980FFF797FEA5E78B79002BA2D000260B
:107E300000231A461946A86A09F0CCFB0136A2793C
:107E4000F3B29A42F4D895E78B7A002B92D00026B1
:107E500000231A461946E86A09F0BCFB0136A27AEB
:107E6000F3B29A42F4D885E7B03B002070B58AB0EF
:107E700086880B4606A84FF42851144605934FF602
:107E8000FF7500F081FD0120CDE90105059B0094FF
:107E9000314606AA044800F073F8044606A800F02C
:107EA00061FD20460AB070BD383C002010B5044684
:107EB000043002F099F9034B236000232375204618
:107EC00010BD00BF0100FFFF017D01B1704710B57B
:107ED0000446043002F092F90123237510BD00BF5F
:107EE000007D70470B88322B10B504D0332B1ED089
:107EF000302B0FD010BD4A8932B100230133DBB2E1
:107F00009342FBDBCB881BB3041D2046BDE8104029
:107F100002F0E6B9CB88041D002BF6D14B89002B6B
:107F2000F3D00A3120460A2202F0C2F9EDE7CB88ED
:107F3000002BE9D14A89002AE6D002EB4202520026
:107F4000041D023292B20A31204602F0B1F9DCE798
:107F500002EB8202F3E700BFA0DF704710B50446D2
:107F600000F5F87002F040F92046F82200210DF0EB
:107F70008FF9F822A01800210DF08AF9204610BDD3
:107F80002DE9F04782B00546BDF82C60BDF83040C1
:107F90002048ADF80460BDF828A0ADF80640904632
:107FA00099460F4601F0C6F905F5F875064603E057
:107FB000FFF73CFE09F0EAF9284602F077F904469B
:107FC0003046002CF4D10121284602F017F9524620
:107FD0004946284602F02EF908F10401384601AA64
:107FE000FFF7BAFF30B1284602F012F9204602B07E
:107FF000BDE8F0874FF4FA71284602F021F920EA33
:10800000E074284602F004F9A4B2204602B0BDE8AC
:10801000F08700BFB03B00202DE9F04F8F880D881E
:1080200085B0884604463946864801F083F9A5F1B3
:108030001003012B814640F2908094F854203AB30B
:10804000002633461633502D54F823A069D0512D05
:108050001AD198F80630B8F808B0022B53D0BBF10B
:10806000000F11D051466846FFF7DAFBBDF800302B
:108070005B4559D0514602A8FFF7D2FBBDF80C3042
:108080005B4551D094F854200136F3B29342D9D3D2
:1080900094F84C31002B00F0D18004F5A67900262D
:1080A00004E094F84C310136B34220DD59F8040F56
:1080B000FFF760FCB842F4D1382D03D0392D01D040
:1080C000362DEED1B8F80AA0BAF1000FE9D0D9F8F0
:1080D00000B05846FFF752FC5045E2D158464146A1
:1080E000FFF74EFC94F84C310136B342DEDC112D23
:1080F00055D0352D04D1B8F80A30002B40F08F80D0
:1081000005B0BDE8F08F98F80E30062BA7D1DAF84D
:1081100000305046DB68414698474846FFF77CFDF3
:10812000B0E7B8F806B09AE7DAF800305046DB68F6
:10813000414698474846FFF76FFD0028A2D0502DD2
:10814000A0D1514602A8FFF76BFBBDF80C305B4590
:1081500098D14846FFF79CFD94E72378002B3FF425
:108160006CAF0026112D33460CD004EB8303394647
:10817000586803685B68984701362278F3B29A42E0
:10818000F3D85AE704EB83033946586803681B6841
:10819000984701362278F3B29A42F3D84DE7D3B12B
:1081A0000026334605E094F84C210136F3B29A429A
:1081B00011D904EB8305D5F85001FFF7DBFBB8427A
:1081C000F1D1D5F85001FFF7D1FB013694F84C21DD
:1081D000F3B29A42EDD894F8F820002A90D0002506
:1081E0002B4604EB8303D3F8FC008388BB420AD000
:1081F0000135EBB2934283D204EB8303D3F8FC0046
:108200008388BB42F4D103681B689847013594F812
:10821000F820EBB29342E4D305B0BDE8F08F04F54B
:10822000F874B8F80C20204608F1100102F040F86C
:10823000204605B0BDE8F04F02F052B8112D7FF492
:1082400058AFC8E7B03B002090F85420272A0CD83C
:1082500010B4034602F11604013280F8542043F8AA
:10826000241001205DF8044B70470020704700BFC8
:108270000378132B06D800EB83020133037001202F
:10828000516070470020704778DF70477ADF704791
:10829000054A034692E80300002283E80300C3E98D
:1082A00002221846704700BFD487030008B5FFF7C5
:1082B000EDFF08B1002008BDFFF7E6FFB0FA80F03F
:1082C000400908BDF8B500250D4F2E4601E0142DDC
:1082D00014D0A9B2384601F02DF801350446002823
:1082E000F5D0FFF795FC0028F1D02046FFF79AFC67
:1082F000012804BF0136F6B2142DEAD13046F8BD8C
:10830000B03B002081607047C1607047704700BF7C
:108310008ADF704730B40D4CC4621F250022502400
:108320008584A025C0E91122C0E90F22A0F846509B
:10833000A0F84840006230BC8262028680F8382093
:108340004263C264A0F85020704700BF0001800063
:108350002DE9F04F10468DB016460C4600F030FB6C
:10836000C5B2102D4FD0B66807220623A16994F834
:108370001C9001918DF80D208DF80C30ED080DF159
:108380000C080DF10E0A0027B9F1010F0A97CDE98B
:108390000477CDE90677CDE90877CDF82B700ED9B3
:1083A00098F8000001994B464A7882420FD00A782B
:1083B000D4432344013213F0FF031144F4D108F1F4
:1083C0000108C245E0D100200DB0BDE8F08F11F8E2
:1083D000024B013CE4B2224604A80CF031FF0DF13F
:1083E000100B1CB9EBE714F0FF04E8D058462A46FE
:1083F00031460CF017FF641BAB440028F3D1012079
:108400000DB0BDE8F08F043603220223AEE700BFB3
:108410002DE9F0430B888E88103B87B00D4604464B
:108420000D2B2CD8DFE803F077072B2B2B2B2B2BD6
:108430002B2B2B842B2E836AF340DB071FD556484A
:10844000FEF704FED8B9A36A94F82C20012505FA9A
:1084500006F623EA0606A6628AB994F82D3073B1AF
:108460001F232462A38404F1200104F14400FFF7D8
:108470004FFF20B9494800F075FF84F82C5007B031
:10848000BDE8F08390F92E2091F91B309A423ADC36
:1084900090F8383001F108080BB3DFF8049100269A
:1084A00002E0D6B2B34218D9636BCDF8089003EB63
:1084B000061302AA59680391D3E902734146204684
:1084C00005930497FFF744FF074602A800F04AFA15
:1084D00094F83830721C002FE3D09E4213D094F8E9
:1084E0002F30002B49D095F82430012B0BD9296A65
:1084F0004A78FF2A30D00A78D0430344013213F07F
:10850000FF031144F4D104F120010020FFF700FF24
:1085100007B0BDE8F083CB7B022BB0D1836A012288
:1085200002FA06F633430022836280F82C20A6E785
:108530000B7A012BA3D1002580F82C50174800F0AE
:1085400025FF226C002A9AD0009502AB29462846C6
:1085500002950BF0D5FD92E711F8025B6A1ED2B2CC
:10856000022A28BF022202A80CF06AFE012DCAD0FE
:10857000228EBDF808309A42C5D1E26B002A3FF442
:108580007EAF01230093404602AB2421CDF8088042
:108590000BF0B6FD73E700BFC03B0020B03B0020EE
:1085A000FC87030046DF70477FDF704780DF70473E
:1085B00085DF704786DF704738B51C460D46034699
:1085C000114628462246984734B1014600222846E3
:1085D000BDE83840FFF7EABF38BD00BF10B50C4614
:1085E00082B003466946204698476A4620460121E4
:1085F000FFF7DCFF02B010BD044A02600321002235
:10860000C0E91622C0E91822017170473107100332
:10861000012070470B7803F0FE03042B01D00020EB
:10862000704770B515468CB00C462022002104A876
:108630000CF02EFE28686968AA68EB686D460FC5C5
:108640009DF800109DF80F209DF801609DF80E50D8
:108650009DF802008DF80F1023469DF80D108DF83F
:1086600000209DF803208DF80E608DF801509DF8D4
:108670000C609DF804508DF80D008DF802109DF8E7
:108680000B009DF805108DF80C209DF80A208DF840
:1086900003608DF80B508DF804008DF805208DF8DF
:1086A0000A109DF8061033F8042FADF810209B78BF
:1086B0009DF809209DF81D009DF810609DF81F5041
:1086C0008DF809108DF806209DF811109DF81E20D8
:1086D0008DF81D309DF807308DF812008DF81F6061
:1086E0009DF808009DF813608DF810508DF81E104D
:1086F0009DF81C509DF814108DF811208DF808304D
:108700009DF81B209DF81A308DF807008DF81C602D
:108710008DF813509DF815608DF81B108DF81420FE
:1087200068468DF815309DF819109DF817209DF8B2
:1087300018309DF816508DF818208DF816108DF809
:1087400017308DF81A608DF81950FFF72BFF6278FB
:108750009DF82F309DF82E009DF82D108DF82100EA
:108760009A428DF8221004F1010404D0012080F017
:1087700001000CB070BD6278C3B29A4204F10104EA
:10878000F4D16278CBB29A42F0D10020EFE700BF7B
:1087900008B5137CDB0758BF1C32084602F11201F2
:1087A000FFF706FFB0FA80F0400908BDF0B58E88EB
:1087B0000C4699B005463146474800F0BBFD23887A
:1087C000133B0746072B29D8DFE803F036515D2815
:1087D0007128042A237AABB9637B9B070ED402A8C5
:1087E0003946FFF725FA0298BDF80C209DF80E30A7
:1087F00085F85430C5F84E00A5F852203846A91D1A
:10880000FFF74CFA2A6E4AB1247A02230021009322
:10881000084604ABCDE904640BF072FC19B0F0BD5E
:108820006A6E002AFAD0012300210093084604ABA7
:1088300004960BF065FCF1E7AB1D002405F1220264
:10884000049305F13E03CDE90823CDE90544CDE9C4
:108850000A440794FFF7E6F901280CBF2A4622468E
:108860002146304604ABFFF79FFE19B0F0BD04A9C6
:10887000FFF72AFA034640B304A93046002312AAA0
:10888000FFF798FECAE7AB6D002BC7D0A57B04931A
:10889000042304F1080005F0010500930F4A059632
:1088A00004AB0621CDE906050BF02AFCB6E7EC6D1A
:1088B000002CB3D0022300210093094A084604ABE0
:1088C000CDE904460BF01CFCA8E730461A461946D1
:1088D000FFF770FEA2E700BFB03B0020B9850200A1
:1088E000DD850200A8DF7047704700BF30B5044641
:1088F00083B0083000F074F804F10C010DF10602A9
:108900000120FFF7EFFF054628B9044B04481C601F
:108910002146FFF7ADFC284603B030BDAC3B00203C
:10892000383C002030B44C68C460D1E90241054AAB
:10893000054D0260054A8560C0E90441426030BCD3
:10894000704700BFE4870300FC870300000011119B
:1089500083790B70C3791370704700BF62DF704773
:1089600063DF7047704700BF10B504460BF010F985
:10897000204610BD034A02600022C0E90222827133
:1089800082807047FC87030010B4054C8180002270
:1089900001210460C0E902225DF8044B8171704737
:1089A000FC870300002210B4044C046081605DF871
:1089B000044B82718280C260704700BFFC87030055
:1089C0008379012B0AD0826832B9C26822B9012B9F
:1089D0008CBF802000207047802070471020704797
:1089E0002DE9F047857982B0002D47D1C76806464A
:1089F000002F47D0102008F0D7FC824638460DF0F3
:108A000078FB441E30B3DFF88490A84604E00134BC
:108A1000023C1FD4102D1DD017F804C0BCF12D0F3F
:108A200007EB0402F3D099F80030ADF805808DF81B
:108A3000043012F8013C8DF804301022002101A806
:108A40008DF805C00DF010FC6B1C023C0AF8050007
:108A5000DDB2DFD5C6F808A0BAF1000F0ED0B11D07
:108A60005046FFF77BFFB168321D1020FFF778FFFB
:108A7000B0FA80F0400902B0BDE8F087012002B0F2
:108A8000BDE8F087D0F808A0E6E700BFF087030054
:108A90004BDF704710DF70477CDF70477DDF70472A
:108AA00060DF704769DF704761DF704766DF7047DE
:108AB00067DF7047704700BF0B200BF0C3BE00BFDD
:108AC00030B5124C124D83B0D4F878034FF0FF311B
:108AD00009F0A8F90028F7D06DB101A8FFF7D8FF79
:108AE0000528F1D00028F8D10198831E012BF4D875
:108AF00007F018FEF1E701A8FFF7CAFF0528E3D049
:108B000001A8FFF7C5FF0528F5D1DDE7B03B002040
:108B1000250703002DE9F04F2DED028B4FF4FA707D
:108B200089B008F041FCB24E00F1080308EE103A9B
:108B3000054606F5747706F5227AD6F874034FF0E9
:108B4000FF3109F06FF90028F7D04FF4FA730DF1F7
:108B500016012846ADF81630FFF7A6FF10B105281C
:108B6000F3D1EAE7B5F80490B9F1130F00F23981B7
:108B700006EB8903D3F884433CB129462046FFF72E
:108B8000C5F89C482946FFF711FE2B88013B1B2B9B
:108B90005AD8DFE813F0160159005900590059005E
:108BA00059005900590059005900590059005900FD
:108BB00059005900B4001C005900590059005900CF
:108BC000590059005900590059005900A200DFF816
:108BD00038824FF0000B58F8040F30B1FFF718F847
:108BE00018B10BF1010B5FFA8BFBB845F3D1BBF168
:108BF000000F06D196F880331BB159460B200BF0BD
:108C0000F1FD2046FFF70EF8012800F0EC80F26934
:108C100062B10223002195F808C00093084606AB14
:108C2000CDF81890CDF81CC00BF06AFA09F1E008F5
:108C300006EB8803586810B103685B68984706EB39
:108C400088080023C8F8043029465046FEF778F912
:108C500069482946FFF7DCFBB6F882334B452B8881
:108C600000F0B480102B1ED02CB32046FEF7DAFFA4
:108C7000012803D15E482946FFF748FB2046FEF74E
:108C8000D1FF02281BD05D48FFF72AF900BB5C48E2
:108C90002946FFF7C1F9D6F8D833002B3FF455AF7A
:108CA0002846984751E7EB7B012BDDD1AB88A6F82E
:108CB0008233002CD9D14E482946FFF727FB514873
:108CC0002946FEF7E3F94D48FFF70AF90028DED000
:108CD0004A482946FFF706F9D9E7D6F8D423002AEF
:108CE000B2D00223002195F908C00093084606ABD4
:108CF000CDF81890CDF81CC00BF002FAA4E74FF0A5
:108D00000008D6F87C03CDF8008043464246032194
:108D10003D4C0AF00DFC54F8040F30B1FEF778FF1B
:108D200018B108F101085FFA88F8BC42F3D196F84F
:108D300080336BB1B8F1000118BF01210B200BF09B
:108D400051FD96F880331BB101210B200BF04AFD39
:108D500009F1E00806EB8804606820B103685B68ED
:108D6000984700236360EB7B012B0BBF96F86233BF
:108D700096F8683396F8634396F869430393342072
:108D80000AF004FF06EB8808039B009418EE102AF3
:108D900004464946FEF708FF2046C8F80440FEF79F
:108DA00041FF012832D0B269002A3FF44DAF0123C0
:108DB00000210093084606ABCDF818900BF0A0F9FF
:108DC00042E700214846FFF771FE3DE7102B3FF4D4
:108DD0006AAF112B7FF448AF4FF6FF73A6F88233CA
:108DE00042E70446D1E6F268002A7FF412AF1DE79D
:108DF000B03B0020D03B00209C3E0020F03E0020F5
:108E0000383C0020C03B0020303F0020B268002AE0
:108E10003FF41AAF0021009006AB0846CDF8189039
:108E20000BF06EF910E700BF38B50446FFF730FAD3
:108E300004F11000FEF7F6F804F12000FFF7DCFB68
:108E400004F18800FFF78AF804F52270FDF77AFF35
:108E500004F53370FDF7FCFE04F53B70FFF75AFA9A
:108E600004F55070FFF722F815481649164AC4F861
:108E700064234FF440630025C4F8583340F20113D3
:108E8000C4E9D701A4F86833A4F86A5304F5617003
:108E9000294650220CF0FCF901224FF6FF73A4F88A
:108EA0006C5384F86E53C4E9DD55C4E9F555C4F834
:108EB0007C5384F88023A4F88233204638BD00BF59
:108EC000010A1700030001011700030004290BD851
:108ED000DFE801F00B130B1B0300104BC0F85E33EF
:108EE00040F20313A0F8623370470D4BC0F85E33B5
:108EF00040F20113A0F8623370470A4BC0F85E33AA
:108F000040F20113A0F862337047074BC0F85E339C
:108F10004FF48173A0F86233704700BFF70064001C
:108F2000170003001700020080000600F0B5AE4EE7
:108F300080F86C138DB0336980F86D230446AB491B
:108F4000039303A8FFF7A6FD18B1002528460DB02E
:108F5000F0BD0990CDE90A00A54A94F85D3304926A
:108F600009A901208DF82430FFF79CFD0028ECD1E1
:108F700094F86D330B90CDE90900181E18BF01203D
:108F800094F86C538DF82700049A8DF8263009A9BF
:108F900040208DF82550FFF785FD0028D5D194F8A5
:108FA0005C130990034661F30003CDE90A00049ABB
:108FB0008DF8243009A9A020FFF774FD0028C4D142
:108FC000D4F858330A900B90049A099309A9A12068
:108FD000FFF768FD0028B8D194F86C33002B40F0FF
:108FE000B48094F86D33002B47D00023B4F8647339
:108FF000049A0993022509A92320CDE90A338DF8A3
:109000002450ADF82670FFF74DFD00289DD1CDE925
:10901000090094F86D73B4F866330B90049A8DF8D8
:10902000245009A920208DF82670ADF82830FFF7CC
:1090300039FD002889D10990CDE90A0094F86833F8
:10904000049A8DF8245009A922208DF82630FFF7C4
:1090500029FD00287FF479AFCDE9090094F8693340
:109060000B90049A8DF8245009A921208DF8263000
:10907000FFF718FD00287FF468AF04A8FFF710FD84
:1090800000287FF462AFCDE9070040F0010307A993
:1090900002208DF81C30FFF70BFD00287FF455AF40
:1090A0002046FFF703F9054600283FF44EAF04F1D0
:1090B0002000FFF7ADFA337D4E498DF808301022BD
:1090C00002A8FFF7E9FC00287FF43FAF94F86D3366
:1090D000002B40F0848003220021012008F006FAD2
:1090E000C4F8740300283FF430AF05AB0326CDE984
:1090F00000634149414800234FF4A06209F0B8F9E8
:1091000032460021012008F0F1F9C4F87803002864
:109110003FF41BAF06ABCDE9006339493948002362
:10912000C82209F0A5F9384B4FF480021A60374B7A
:1091300000930023184601224FF480710AF0A2F92F
:10914000C4F87C0301F0D8F800E70990CDE90A00E3
:10915000B4F85E33049AADF82630012509A923201E
:109160008DF82450FFF79EFC00287FF4EEAECDE989
:10917000090094F86C73B4F860330B90049A8DF87E
:10918000245009A920208DF82670ADF82830FFF76B
:1091900089FC00287FF4D9AE0990CDE90A0094F843
:1091A0006233049A8DF8245009A922208DF82630C4
:1091B000FFF778FC00287FF4C8AECDE9090094F8E9
:1091C00063330B90049A8DF8245009A921208DF85F
:1091D0002630FFF767FC00283FF403AFB5E604F143
:1091E0001000FDF72DFF76E75C880300B58A0200CA
:1091F000003600204088030054880300158B0200CD
:1092000058880300C18A020000E100E0B98A020028
:1092100000B583B008460DF10601ADF80620FFF752
:109220003DFC20B99DF8060003B05DF804FB00206A
:1092300003B05DF804FB00BF30B41A4A0B46054684
:1092400007CA84B001AC03C49DF90400227098429F
:10925000194620D09DF905308B421CD09DF906306F
:109260008B4218D09DF907308B4214D09DF90830FD
:109270008B4210D09DF909308B420CD059B19DF929
:109280000B308B4207D09DF90C308B4203D000206D
:1092900004B030BC7047012085F86E1304B030BCB8
:1092A000704700BF7488030090F96E03704700BFD9
:1092B00080F88013704700BF70B5044682B0D0F8C4
:1092C0007C030D460AF060F94FF47A7206460023DB
:1092D000A90DA8020BF084FD002302460421D4F856
:1092E0007C0300930AF024F90EB102B070BD009621
:1092F000D4F87C033346324603210AF019F902B050
:1093000070BD00BF132906D800EB8101D1F884039A
:1093100008B1FEF77DBC0020704700BFB0F88203A3
:10932000704700BF01290CBFB0F85E03B0F86403BA
:10933000704700BF13299ABF00EB8101D1F8840365
:109340000020704710B5064C0021D4F8780308F0CF
:10935000DDFBD4F874030021BDE8104008F0D6BB53
:10936000B03B002090F8803303B9704710B582B04D
:10937000D0F87C4309F06CFA0023024600932046A3
:1093800001210AF0D5F802B010BD00BFF0B583B0DE
:10939000002405462346D0F87C030094224603218E
:1093A0000AF0C6F805F5607605F5747756F8040FEF
:1093B00020B1FEF72DFC08B10134E4B2BE42F5D174
:1093C00095F8803343B1211E18BF01210B2003B053
:1093D000BDE8F0400BF006BA03B0F0BD0148FFF75E
:1093E00023BD00BFB03B00200020704708B51830F7
:1093F000FEF738FA003818BF012008BD30B585B037
:10940000044641F60F016846FFF7BEFA694620465A
:10941000FFF788FA25466846FFF7A4FA084B45F897
:10942000183B684642F61921FFF7AEFA694628460E
:10943000FEF774F96846FFF795FA204605B030BD8F
:109440008888030030B583B00446FFF74FFA08B1AF
:1094500003B030BD0546122104F118000190FEF75B
:10946000A3F901982A461121FEF7B6F901980121C6
:10947000FEF7A0F9019803B0BDE83040FDF76ABEE1
:109480003CDF70473DDF704711DF704713DF7047E7
:10949000B0DF7047B2DF70472DE9F0419EB007465C
:1094A00004A8158814460E46FEF7BAF9BDF8103028
:1094B000AB4202D01EB0BDE8F081A379043B022B81
:1094C000F8D939465248FFF735FF4FF0000802231C
:1094D000394605463046CDE90688CDE908888DF83D
:1094E0001830FEF7FFF906A900286AD03846ADF813
:1094F0001C80FFF7CDFF247B012CDBD1454E41467C
:109500003E2230460BF0C4FE23460DF10E024249C6
:1095100038460824ADF80E40FFF7BCFF68462946E0
:10952000FEF786FB00983060BDF804309DF80620F9
:10953000B271B3802846FEF76FFB002849D1354948
:1095400036484FF6FF740B4601311B7883EA14232B
:1095500083EA131242EA042283EA131382EA0332F3
:1095600082EA431381429CB2EDD12A4B2C489C875E
:109570000021FDF707FC2846FEF76AFBFF210020CB
:10958000FFF780FFB1210020FFF77AFF002891D17B
:10959000FFF77AFF00288DD1224B4FF0FF324FF0BA
:1095A0001024C3F88020C3F880216069FFF76EFFA4
:1095B00000287FF47FAF80F31488606901F082F99E
:1095C00078E740F2FD133846ADF81C30FFF760FF36
:1095D00070E70AA92846FEF777FB0028AFD01EAB3C
:1095E00013E903000B0C3060B180B37118AC0FCCE1
:1095F0000D4FC6F807000AAC7960BA60FB600FCC6B
:1096000018360FC694E8070086E8070097E700BF02
:10961000B03B0020807F0020B47F0020BC7F002072
:10962000383E002000E100E0877F002030B585B0A3
:1096300004460E496846FFF7B5F969462046FFF72C
:1096400071F925466846FFF78DF9094B45F8183B37
:1096500008496846FFF7A6F969462846FEF75EF80E
:109660006846FFF77FF9204605B030BD94880300B7
:10967000DC880300B488030030B5B3B00546FFF7BB
:1096800035F918B10446204633B030BD2D491CA829
:10969000FFF788F91CA906A8FEF740F81CA8FFF7F9
:1096A00061F906A8FEF77CF806A80421FEF77CF80D
:1096B00006A81421FEF77CF806A8FDF74BFD04462A
:1096C00098B905F1180018210190FEF76DF801987E
:1096D0001721FEF76DF801981B490122FEF78AF861
:1096E0000198FDF737FD044628B106A8FDF718FDDF
:1096F000204633B030BD154902A8FFF753F902A93F
:109700001CA8FEF70BF802A8FFF72CF91CA8FEF71F
:1097100047F802211CA8FEF747F802211CA8FEF713
:1097200049F81CA8FDF716FD044618B901211CA82C
:10973000FEF7B8F81CA8FDF7F3FC06A8FDF7F0FC4F
:10974000D6E700BFA488030099940200C4880300F0
:10975000C16180F83D207047016380F84220704766
:1097600070B584B0044641F60A016846FFF70CF96B
:1097700069462046FFF7D6F86846FFF7F3F820461B
:109780000E4B40F8183B242200210BF081FD0C4EBB
:109790000C480D4AE06200232364E36384F84430FC
:1097A0001025052113232046E66184F83D5084F8F6
:1097B0004110226384F8423004B070BD0C8903006C
:1097C00040880300E8880300F08803002DE9F04793
:1097D0009AB00646FFF78AF88046002846D1336AD9
:1097E000002B4ED0736A002B56D0C6F5275909F1CD
:1097F000270906F1140406F1380706F13C0554F870
:10980000043F04A873B3FDF759FF2268B36B09EB5B
:1098100005019A4289B2684608BF42F65021FFF717
:10982000B3F8694604A8FDF7AFFF6846FFF79AF85A
:1098300004A8FDF7B5FF022104A8FDF7B5FF2978BC
:1098400004A8FDF7B7FF04A8FDF784FC824604A82E
:10985000BAF1000F0ED12A782168FDF7E7FF04A8BE
:10986000FDF75EFCBC4205F10105C8D140461AB0C7
:10987000BDE8F087FDF754FCD04640461AB0BDE87D
:10988000F0870AF0E3FD04460CF033FC736A34629F
:1098900086F83E00002BA8D10AF098FD04460CF093
:1098A00028FC746286F83F009FE700BFD0F8D830EC
:1098B000988980B2704700BF70B582B006460846EE
:1098C0001C460192FDF76AFF019905462246D0F831
:1098D000D8000AF0D5FC844206D9D5F8F0301BB187
:1098E000211A89B230469847D5F8E83023B130467E
:1098F00002B0BDE87040184702B070BD08B592B222
:10990000D0F8D8000AF00AFD08BD00BF00B583B04A
:10991000D0F8D8000DF1070200210AF03BFD20B17C
:109920009DF8070003B05DF804FB4FF0FF30F9E746
:10993000D0F8D8000AF092BCD0F8C030988980B234
:10994000704700BFD0F8C0000AF088BC10B50168AD
:109950000C4A8C69944282B00BD1D0F8D800012215
:109960000DF107010AF0DAFC40B19DF8070002B0E2
:1099700010BD01220DF10701A047F5E74FF0FF30C0
:10998000F5E700BFFD98020000B583B0D0F8C00035
:109990000DF1070200210AF0FDFC20B19DF807003F
:1099A00003B05DF804FB4FF0FF30F9E710B550F855
:1099B000181C0D4A8C69944282B00CD018380122D0
:1099C0000DF10701A04718B19DF8070002B010BDC6
:1099D0004FF0FF30FAE701220DF10701D0F8C00087
:1099E0000AF09CFCEFE700BFFD9802002DE9F04F64
:1099F00050F8183C83B004463F48D3F828800F46FF
:109A00001646FFF78BFC3D4B9845054609D0A4F15F
:109A1000180033463A462946C44603B0BDE8F04F25
:109A2000604701463448FFF785FC8346002850D044
:109A300004F1100948462946FDF754FF002848D094
:109A400094F8CC30002B3CD0D4F8C800C8B31FFA2F
:109A500086FA524639460AF013FCD4F8C8309B897E
:109A6000804658461FFA83FBFEF7DEF8033883452D
:109A700025DB21482946FFF75DFC50B3FEF7D4F8FB
:109A8000033882B21046019207F08EFC834600B381
:109A9000019AD4F8C80059460AF040FC0346F0B9D0
:109AA000584607F09BFC464509D9AAEB08039BB230
:109AB00007EB080229464846FDF744FF58B1B04677
:109AC00009E03A4629464846B3B2FDF73BFF002875
:109AD000F5D14FF00008404603B0BDE8F08F5A467C
:109AE00029464846FDF72EFF0446584607F076FC07
:109AF000002CD8D1EDE700BFB03B00201D9F020035
:109B00002DE9F04150F8183C84B004463B489E6A69
:109B10008DF80F10FFF702FC394B9E42054609D025
:109B2000A4F11800294601230DF10F02B04704B03B
:109B3000BDE8F08101463148FFF7FCFB064650B313
:109B400004F1100738462946FDF7CCFE18B394F807
:109B5000CC30002B49D0D4F8C800002845D00DF1F6
:109B60000F0101220AF08CFBD4F8C8309B89804693
:109B700030469EB2FEF758F8033886420DDA0120CF
:109B8000D5E7324629463846FDF7DCFE0446304626
:109B900007F024FCF4B90020C9E718482946FFF76C
:109BA000C9FB0028F7D0FEF73FF8C21E92B210465C
:109BB000019207F0F9FB06460028ECD0019AD4F890
:109BC000C80031460AF0AAFB03460028D9D1304626
:109BD00007F004FCB8F1000FD1D10DF10F022946B6
:109BE00038460123FDF7AEFEA1E72946384601239A
:109BF0000DF10F02FDF7A6FE99E700BFB03B002074
:109C00001D9F02002DE9F04105683B4BAD6A82B013
:109C10009D428DF8072065D1044638480E46FFF76F
:109C200089FB054600284FD004F128073846314605
:109C3000FDF758FE002847D094F8E430002B47D0B9
:109C4000D4F8E000002843D00DF1070101220AF00A
:109C500017FBD4F8E0309B89804628469DB2FDF77B
:109C6000E3FFC31E9D4244DB24483146FFF762FBFD
:109C700050B3FDF7D9FF033882B21046009207F0C7
:109C800093FB054600B3009AD4F8E00029460AF099
:109C900045FB68B9284607F0A1FBB8F1000F28D1B1
:109CA0000DF10702314638460123FDF74BFE0CE06B
:109CB00003462A4631463846FDF744FE0446284608
:109CC00007F08CFB002CE8D1002002B0BDE8F08149
:109CD0003146384601230DF10702FDF733FE02B08D
:109CE000BDE8F08101230DF10702A84702B0BDE8ED
:109CF000F0810120E9E700BF1D9F0200B03B00207A
:109D00002DE9F04F036883B0044641489E6A8846B7
:109D10001746FFF703FB3F4B9E42054661D10146C4
:109D20003B48FFF707FB0646002855D004F12809F9
:109D300048462946FDF7D6FD00284DD094F8E4307A
:109D4000002B41D0D4F8E00000283DD01FFA87FA5C
:109D5000524641460AF094FAD4F8E02003463046D1
:109D6000B2F80CB01E46FDF75FFF1FFA8BFB0338FD
:109D7000834524DB26482946FFF7DCFA60B3FDF76C
:109D800053FF033882B21046019207F00DFB834661
:109D900010B3019AD4F8E00059460AF0BFFA48BB64
:109DA000584607F01BFBB74209D9AAEB06039BB242
:109DB00008EB060229464846FDF7C4FD68B13E4659
:109DC000304603B0BDE8F08F424629464846BBB254
:109DD000FDF7B8FD0028F2D10026304603B0BDE8FB
:109DE000F08F01463B4642462046B44603B0BDE8EC
:109DF000F04F604703465A4629464846FDF7A2FD04
:109E00000446584607F0EAFA002CCCD1E4E700BF3C
:109E1000B03B00201D9F02002DE9F041036882B095
:109E200004463C489E6A8DF80710FFF777FA3A4BD4
:109E30009E420546014663D13648FFF77BFA064647
:109E400000284FD004F1280738462946FDF74AFD7F
:109E5000002847D094F8E430002B47D0D4F8E00035
:109E6000002843D00DF1070101220AF009FAD4F8C5
:109E7000E0309B89804630469EB2FDF7D5FEC31E7A
:109E80009E4245DB23482946FFF754FA50B3FDF7BD
:109E9000CBFE033882B21046009207F085FA0646E0
:109EA00000B3009AD4F8E00031460AF037FA68B9F6
:109EB000304607F093FAB8F1000F29D10DF10702EF
:109EC000294638460123FDF73DFD0CE003463246A6
:109ED00029463846FDF736FD0446304607F07EFA3F
:109EE000002CE8D1002002B0BDE8F08129463846B8
:109EF00001230DF10702FDF725FD02B0BDE8F08159
:109F0000204601230DF10702B04702B0BDE8F08101
:109F10000120E8E7B03B00201D9F02002DE9F04F33
:109F2000044683B0384890461F460E46FFF702FAB3
:109F3000002856D004F12809054631464846FDF769
:109F4000D1FC00284DD094F8E430002B41D0D4F857
:109F5000E00000283DD01FFA87FA524641460AF039
:109F60008FF9D4F8E02003462846B2F80CB01D461D
:109F7000FDF75AFE1FFA8BFB0338834524DB22488A
:109F80003146FFF7D7F960B3FDF74EFE033882B2D2
:109F90001046019207F008FA834610B3019AD4F8EC
:109FA000E00059460AF0BAF900BB584607F016FA25
:109FB000BD4209D2AAEB05039BB208EB050231466C
:109FC0004846FDF7BFFC68B13D46284603B0BDE8F2
:109FD000F08F424631464846BBB2FDF7B3FC00283D
:109FE000F2D10025284603B0BDE8F08F03465A465B
:109FF00031464846FDF7A6FC0446584607F0EEF900
:10A00000002CD5D1EDE700BFB03B002070B584B087
:10A0100004460E4668461E49FEF7C4FC69462046C3
:10A02000FEF780FC6846FEF79DFC1A4B1A4903F1C7
:10A030000802002548334FF47A70C4E906352260DF
:10A0400020626846FEF7AEFC694604F12800FDF781
:10A0500065FB6846FEF786FC10496846FEF7A2FCE1
:10A06000694604F18000FDF759FB6846FEF77AFC6B
:10A070002046C4E93A55C4F8D850A4F8DC60C4F8C6
:10A08000F050C4F8E05084F8E45004B070BD00BF54
:10A0900040890300508903003089030020890300B0
:10A0A00010B50D4B0446D0F8E00023604033A361A7
:10A0B00010B103685B68984704F18000FDF730F841
:10A0C00004F12800FDF72CF82046044B40F8083B2B
:10A0D000FEF748FC204610BD58890300E4870300C2
:10A0E00010B50F4B0446D0F8E00023604033A36165
:10A0F00010B103685B68984704F18000FDF710F821
:10A1000004F12800FDF70CF82046064B40F8083B08
:10A11000FEF728FC204609F03BFD204610BD00BF9D
:10A1200058890300E487030070B5044682B0182004
:10A1300009F02CFD0022054601210AF06FF828469F
:10A14000B4F8DC10C4F8D8500AF07AF82046FEF7CC
:10A15000CDFB054610B1284602B070BD01211E4856
:10A16000FFF7E0F804F12806034610213046019677
:10A170001E46FDF719FB2A4601981121FDF72CFB1D
:10A1800001983146FDF714FB01981449FDF746FB91
:10A190000198FCF7DFFF05460028DCD104F18000C0
:10A1A0000C210190FDF700FB01980D490122FDF7FC
:10A1B00019FB112201982946FDF70EFB0198314643
:10A1C000FDF7F6FA01980749FDF728FB019802B060
:10A1D000BDE87040FCF7BEBFB03B0020188903000B
:10A1E000B99802001C890300002201214270C0E9D5
:10A1F00001220170C2818281704700BF10B5044600
:10A20000017001B110BD0A2007F0B2F9606010BD05
:10A21000037810B5044643B1002301226370C4E9FA
:10A220000133E381A381227010BD406807F082FFF3
:10A23000F2E700BF002381608281C381704700BFC5
:10A24000037870B504460D46B3B9466801236370C0
:10A250004FF47A720023A802A90D0AF0C1FD01464D
:10A26000304607F0DFFD98B9237800264FF0FF3520
:10A270006670A3B9284670BD03220021012007F0B3
:10A2800035F9064660600028E0D14FF0FF35F1E770
:10A29000E58923780026ADB26670002BEAD06068AD
:10A2A00007F048FF6660284670BD00BF40787047E1
:10A2B00038B504468089824228BF0246154619B146
:10A2C000A0680AF0BDFFA089E389A26815FA83F3AC
:10A2D000401B9BB22A44A081E381A260284638BD7E
:10A2E000406820B100231A46194607F073B9704739
:10A2F000B1DF7047B2DF704708B50F4806F0BAF813
:10A300000E490D4800F09AFB28B10D490A4800F0AB
:10A3100095FB50B108BD0949074800F0ABFB08495F
:10A32000054800F08BFB0028F4D1BDE80840044943
:10A33000014800F09FBB00BFA43F0020B489030088
:10A34000C889030070B586B00E4603230021054678
:10A3500014460093044A0496084603AB03950594FB
:10A3600009F0CEFE06B070BD31A6020070B586B011
:10A370000323144606460D460093104603AB044AD9
:10A3800005940721CDE9036509F0BAFE06B070BD5A
:10A3900061A7020030B50A4691B0897953790391DB
:10A3A00011790293D378094D094C01910093937868
:10A3B000527801280CBF2946214604A80BF03AFE2A
:10A3C00004A9044800F0AEFB11B030BDDC890300E5
:10A3D0000C8A0300A43F00202DE9F043D1B00B7894
:10A3E000032B04AF0D460446904668D95A08022A4A
:10A3F0005ED14F4A4F49504BDFF84891012818BFB2
:10A4000011460022381D00F065FD4B4907F1680038
:10A4100000F096FC07F1CC0611E00246414607F138
:10A42000680000F07FFD08F1380229464846FEF733
:10A43000F1F8044678BB07F1680000F0E9FD00225E
:10A44000391D304600F016FE07F1D0000DC8D7F8D0
:10A45000DC10D7F8E4407B67D7F8E83097F8E0C025
:10A46000F8663A67B967412207F1EC0107F1880005
:10A47000C7E9204387F87CC00AF0E2FE07F16800D4
:10A4800000F0F2FD044607F1680044B100F0F8FB6B
:10A490005028D0D1C1E707F1680000F0B9FD381DA0
:10A4A00000F0B6FD204607F59A77BD46BDE8F0837B
:10A4B0000024204607F59A77BD46BDE8F083E946BB
:10A4C0008CB08979AB786A7803916979029129799E
:10A4D00001911A4E1A49E878009004AD012C08BF8A
:10A4E0003146284607F1CC060BF0A4FD1249304650
:10A4F00000F026FC29463046002200F0CFFC04463E
:10A5000050B90024304600F083FD2046CD4607F5C3
:10A510009A77BD46BDE8F083304600F0B1FB021EDD
:10A52000EFDD92B24146304600F0FCFCEAE700BFA6
:10A53000C8890300B4890300A43F0020DC8903001C
:10A540000C8A0300D03B0020F0B5ADB0957993782C
:10A55000344E1446527803956579029594F804C0F8
:10A56000CDF804C0304DE478009404AF0C460128C7
:10A570000CBF3146294607F10C000BF05BFD2B4B5D
:10A5800007F10C0107F13C00002200F0A3FC07F1E9
:10A590003C0000F069FD40B9002407F13C0000F0E8
:10A5A00037FD2046A437BD46F0BD07F13C0000F062
:10A5B00067FB051E08DD07F13C0000F0F1FC2918DF
:10A5C00007F13C0000F0CEFC07F13C0000F058FB26
:10A5D000051E08DD07F13C0000F0E2FC291807F138
:10A5E0003C0000F0BFFC07F13C0000F049FB0028F4
:10A5F000D2DDC31D23F007036D46ADEB030D82B220
:10A6000004A907F13C00C7E9001200F08BFC2046CA
:10A61000D7E900120323FFF76BFEB0FA80F4640958
:10A62000AD46BAE7DC8903000C8A0300A43F002092
:10A63000F0B5B5B092F84E5092F84A30434E1446F9
:10A6400092F84920039594F84D50029594F84C5097
:10A65000019594F84B5000950D463D4904AF0128F3
:10A6600018BF314607F12C000BF0E4FC394807F124
:10A670002C0100F0E3F96E4600284AD1354B07F172
:10A680002C0107F15C00012200F024FC07F15C00C2
:10A6900000F0EAFC18B9C437B546BD46F0BD5021FC
:10A6A00007F15C0000F01AFB5022214607F15C0024
:10A6B00000F052FA0023294627487B61C7E903339B
:10A6C000C7E90633C7E90833BB62FEF733FE07F17B
:10A6D0000C012022FDF7CAFB3B7B03B307F10C0002
:10A6E0000BF007FD013082B2C1B207F15C007A6065
:10A6F00000F0F4FA7A6807F10C0107F15C0000F051
:10A700002BFA07F15C0000F083FCC437B546BD4668
:10A71000F0BD07F12C010F4800F004FAAEE794F801
:10A72000491094F84D3094F84E20039194F84A1053
:10A73000029194F84B10019194F84C10009107F19C
:10A740000C0006490BF076FCC8E700BF0C8A03003A
:10A75000DC890300A43F0020B03B00203C8A0300BA
:10A760002DE9F043ADB00C4604AF002103230646AB
:10A770001546204607F10A027981FFF7BBFD7B8968
:10A78000E84623B9A437C546BD46BDE8F083073384
:10A79000DB08A8EBC3039D460DF11009204607F125
:10A7A0000A0249460323FFF7A5FD04460028E9D124
:10A7B000A979AB786A780391697902912979019135
:10A7C0003D483E49ED780095012E08BF014607F14E
:10A7D0000C000BF02FFC3A4B07F10C0107F13C0089
:10A7E000012200F077FB07F13C0000F03DFC00285F
:10A7F000C8D0214607F13C0000F0B4FB07F13C0053
:10A8000000F03EFA041E08DD07F13C0000F0C8FB32
:10A81000211807F13C0000F0A5FB07F13C0000F017
:10A820002FFA041E08DD07F13C0000F0B9FB2118E7
:10A8300007F13C0000F096FB07F13C0000F020FA25
:10A840007C8980B2A04213D0E1B207F13C0000F055
:10A8500045FA2246494607F13C0000F07DF907F130
:10A860003C0000F0D5FBA437C546BD46BDE8F083EB
:10A87000E31D6D46DB08A5EBC3039D4604A92246F4
:10A8800007F13C00796000F04DFB79687A89484611
:10A890000AF0C8FC08B9AD46E1E707F13C0000F05A
:10A8A0009BFB7B89DB43191807F13C0000F05AFB46
:10A8B000AD467C89C8E700BFDC8903000C8A030031
:10A8C000A43F0020F0B40346186880F30888586855
:10A8D000FF2464B2EFF30585002D01D1A6460047A1
:10A8E0002546064621273FBAF0B40024002500265D
:10A8F0000027F0B4F92040B2004700BFF0BC704719
:10A9000000207047704700BF002070474FF0FF30B5
:10A91000704700BF002070474FF0FF30704700BF06
:10A920000020704730B4084B084A4FF47F4102F1D1
:10A930000805002430324FF47A709982C3E901404F
:10A940001D601A6130BC70478C3F00205C8A030098
:10A95000704700BF10B5044609F01AF9204610BD33
:10A9600038B50A4B04460D46442240F80C3B002102
:10A970000AF08EFC0023A560237104F1540101202C
:10A9800006F0D8FF2065204638BD00BF988A030036
:10A9900070B504460E46006D4FF0FF3107F042FAE5
:10A9A000257955B98EB1A660314604F10C0005F049
:10A9B000BBFBB0FA80F56D0925710023206D1A46A6
:10A9C000194606F007FE284670BDA668002EF4D092
:10A9D000EAE700BF70B505464FF0FF31006D07F0A4
:10A9E00021FA2B7993B1002305F10C062B71304627
:10A9F00005F0AEFC044680B10023286D1A461946C6
:10AA000006F0E8FDB4FA84F0400970BDA96805F1CC
:10AA10000C0004F029FF0446EEE7A968304604F074
:10AA200023FF04460028E7D1A968304605F07CFBE7
:10AA300004460028E0D101232B71DDE730B5044640
:10AA400095B00D46006D4FF0FF3107F0EBF9294648
:10AA500001AA04F10C0004F0DBFC002302461946B5
:10AA6000206D14461A4606F0B5FDB4FA84F040098C
:10AA700015B030BD2DE9F04F83B00B7800AF2F2B10
:10AA800078600CBF4C1C0C4606460D46006D4FF01E
:10AA9000FF3107F0C7F906F10C084FF0000917E085
:10AAA000ADEB030D68468B4500F8019BEA4601DDDE
:10AAB0000AF0EEFB29465A4650460AF0C1FB5146C1
:10AAC000404603F00BFD08B1113028D10134B546E2
:10AAD00020462F210BF0DDFAA0EB050B0BF108034C
:10AAE0006E460021044623F007035A460028D7D1BA
:10AAF0002946404603F0F2FC60B901247A6800233D
:10AB0000106D19461A4606F065FD20460C37BD4605
:10AB1000BDE8F08F113014BF00240124EEE70024BB
:10AB2000B546EBE738B504460D46006D4FF0FF31F2
:10AB300007F078F9294604F10C0004F0C1FC002369
:10AB400002461946206D14461A4606F043FDB4FA33
:10AB500084F0400938BD00BF036970B504460D4656
:10AB6000186D4FF0FF31164607F05CF9237D4BB1AD
:10AB7000002522690023106D19461A4606F02AFDA9
:10AB8000284670BD2069A1692A4633460C3003F07F
:10AB9000F3FF20EAE075ECE770B50369044682B084
:10ABA000186D4FF0FF3107F03DF9267D4EBB20694F
:10ABB000A1690C3004F01EFC05462069A1698DF8DE
:10ABC000076001230DF107020C3004F05FFB002841
:10ABD0002069A169C8BF9DF807602A4600F10C00F2
:10ABE0004FF00003D8BF4FF0FF3604F0D3FB2269CB
:10ABF0000023106D19461A4606F0ECFC304602B0F0
:10AC000070BD4FF0FF36F2E738B5036904464FF0E8
:10AC1000FF31186D07F006F9237D4BB1002522693D
:10AC20000023106D19461A4606F0D4FC284638BD9C
:10AC30002069A1690C3004F0DFFB05462069A16999
:10AC40000C3004F0D7FB2D1AE9E700BF036910B5FB
:10AC500004464FF0FF31186D07F0E4F8237D43B14F
:10AC600022690023106DBDE810401A46194606F00F
:10AC7000B1BC2069A1690C3004F0E4F9F0E700BF31
:10AC800030B50369044683B0186D4FF0FF3107F00B
:10AC9000C9F8257D55B122690023106D19461A4661
:10ACA00006F098FC4FF0FF3003B030BD2069A16979
:10ACB0000DF1070201230C3004F0E8FA23692A465B
:10ACC00004462946186D2B4606F084FC002CCCBFA8
:10ACD0009DF807004FF0FF3003B030BD30B503687A
:10ACE000164A5B6883B093428DF807101ED1036942
:10ACF00004464FF0FF31186D07F094F8237D53B1EF
:10AD0000002522690023106D19461A4606F062FCE0
:10AD1000284603B030BD2069A1690C3001230DF134
:10AD2000070203F029FF20EAE075EAE701220DF1AE
:10AD3000070198470546284603B030BD59AB0200CD
:10AD400030B4074C016100224FF47A75C0E900422B
:10AD50008560C0E9062230BC027580F8202070476B
:10AD6000B48A0300F0B5836997B004460D461646D1
:10AD700093B1077D006919460C30002F45D003F0D0
:10AD8000ADFDA06906F02AFBE0690023A36108B1CC
:10AD900006F024FB0023E361206903AA0C30294656
:10ADA00004F036FB98B99DF80C30112B34D02C20D0
:10ADB00006F0FAFA0146A06130B120692A460C304B
:10ADC00003F064FD002839D0002017B0F0BD023038
:10ADD000FAD1012EF8D1382006F0E6FA0146A0613A
:10ADE0000028F1D0206940F203130C302A4603F00A
:10ADF00011FE06460028E7D12069A1690C30022324
:10AE0000324604F0C7FA267509E004F09DF9A069FE
:10AE100006F0E4FAA761BFE7EEB1012E3AD02F2188
:10AE200028460BF081F9203400B1451C2946204604
:10AE300040220BF066F9012017B0F0BD0123237505
:10AE400028460BF056F9013006F0AEFA2946E061CB
:10AE50000BF036F9E3E701233820019306F0A4FA5A
:10AE6000019BA06101460028AED020692A460C3023
:10AE700003F0D0FD0028A7D1012E02D000232375B6
:10AE8000CDE72369A169024603F10C00022304F017
:10AE900081FAF3E740F20313DEE700BF30B5036940
:10AEA00083B004460D46186D01924FF0FF3106F055
:10AEB000B9FF019A29462046FFF754FF2169002374
:10AEC00002461446086D1A46194606F083FB2046D2
:10AED00003B030BD70B504460025C4E906551048DE
:10AEE000236182B0206084F820504FF47A700E46BF
:10AEF000A0604FF0FF31186D65602575019206F076
:10AF000091FF019A31462046FFF72CFF22692B461C
:10AF1000106D29462A4606F05DFB204602B070BD42
:10AF2000B48A0300036970B504460D46186D4FF0EE
:10AF3000FF31164606F076FF237D4BB100252269CE
:10AF40000023106D19461A4606F044FB284670BDD2
:10AF50002069A1692A4633460C3004F097F905466A
:10AF6000EDE700BF38B5036904460D46186D4FF094
:10AF7000FF3106F057FF237D4BB1002522690023E6
:10AF8000106D19461A4606F025FB284638BD206983
:10AF9000A1692A460C3004F0FDF9C543ED0FEDE739
:10AFA00038B5036904464FF0FF31186D06F03AFFDB
:10AFB000237D4BB1002522690023106D19461A46E6
:10AFC00006F008FB284638BD2069A1690C3004F062
:10AFD00011FA0546EFE700BF38B5036904464FF0A4
:10AFE000FF31186D06F01EFF237D4BB1002522694D
:10AFF0000023106D19461A4606F0ECFA284638BDB3
:10B000002069A1690C3004F0F7F90546EFE700BFAD
:10B01000036970B504464FF0FF31186D06F002FF6A
:10B02000A16981B12069257D0C30ADB103F056FCDA
:10B03000A06906F0D3F9E0690023A36108B106F026
:10B04000CDF90023E36122690023106DBDE8704053
:10B050001A46194606F0BEBA04F076F8A06906F062
:10B06000BDF9A561EFE700BF8069003818BF012076
:10B07000704700BF2DE9F04F95B00B6906460C46AE
:10B08000186D4FF0FF3100AF904606F0CBFE002365
:10B090002069337586F82030227D2B4930614FF4CA
:10B0A0007A70C6E90013C6E90633B060DAB342F637
:10B0B0002E652069A1690C303A1D03F023FC01289C
:10B0C00031D1BB892E2BF4D0AB4238D0D4F81C90B0
:10B0D00048460BF00EF8054607F10C000BF009F896
:10B0E0002B18093323F00703EA46ADEB030D68463E
:10B0F0006A1C49460AF0A4F899F800302F2BEB4659
:10B1000002D199F801301BB1104B1B882BF8053088
:10B1100007F10C0158460AF0ADFF42465946304649
:10B12000FFF720FED54622690023106D19461A4606
:10B1300006F050FA30465437BD46BDE8F08FBB7B71
:10B14000002BB6D0C2E700BFB48A0300A88A030070
:10B150002DE9F04F85B0DDE90E4B109F81460D467D
:10B1600090461E46002F63D0B8F1000F03D0D8F8E8
:10B170000030B34249D0D9F800002B689E422BD052
:10B180004369B4FBF3F203FB1242BAB9BB4215D8D0
:10B19000B7FBF3F203FB127AA7EB0A0300930393C6
:10B1A000436822461F4631465B46B84788B9039B31
:10B1B00057469B441C44002FD6D139E00093A21A75
:10B1C000C5E90062D0F804A0AB683146D04700283A
:10B1D000CAD005B0BDE8F08F69684369A142D0D8F4
:10B1E000CA18A242CDD9A2EB040ABA45AB6828BF5F
:10B1F000BA46611A524658461944BF1A54440AF0D6
:10B200001FF8D344002FAFD112E0D8F80430A34286
:10B21000B1D8D9F8000082691A44A242ADD9A2EB94
:10B22000040ABA45D8F8081028BFBA46E31AE1E77D
:10B23000002005B0BDE8F08F2DE9F04F074687B03C
:10B240000D4672B30368D1F800B090469A69D1E90F
:10B2500001104AB3013A01F101098618A9EB00096E
:10B26000441E4FF0010A08E014F8012F9DF8173032
:10B270009A4223D1A6423B6814D01A6A934509EB3F
:10B28000040320D20DF11702CDE90032CDF808A059
:10B290005B46002241463846FFF75AFF0028E3D0BC
:10B2A00009DB3B68A8689A69FF2109F0F1FF4FF0BC
:10B2B000FF332B60002007B0BDE8F08F6FF0330044
:10B2C00007B0BDE8F08F034B034A0448122109F090
:10B2D0001DFF00BFD08A0300FC8C0300F08A03002E
:10B2E0002DE9F04F87B0DDF840A00592002B64D027
:10B2F000D0F800908B46D9F81C105C1EA1F108080C
:10B300004445074651D3B4FBF8F0013809F080FDFD
:10B31000D04500F10200A4EB8003B3FBF8F560D840
:10B32000BAFBF8F0013809F073FD861CAAEB86061B
:10B33000B6FBF8F6304609F06BFDAAEB800006FB81
:10B34000180AB54243D9D9F82020059B4FF00409CB
:10B350000DF114080BE0012B45D93A68126A9342AB
:10B3600041D8012101FA04F42D1BB54230D9AC1BA0
:10B37000B4FA84F495FAA5F1C4F11F04B1FA81F18D
:10B380008C4228BF0C4693424FEA840132D200918E
:10B39000CDE90189002259463846FFF7D9FE059BC1
:10B3A0000028D8D007B0BDE8F08FD04588BF13463D
:10B3B000BAFBF8F00CD80025B4E711994FF0FF3232
:10B3C0000A60129A1846136007B0BDE8F08F059B1B
:10B3D000119A1360129B0020C3F800A007B0BDE8CB
:10B3E000F08F0026ADE7064B064A07484FF48F6101
:10B3F00009F08CFE054B064A0348122109F086FE2F
:10B40000708B03001C8D0300F08A0300D08A0300B8
:10B41000FC8C03002DE9F04F89B00746149C129D67
:10B420008B4692461E46002C55D0DBF80030B342C6
:10B430005CD0013340F0A18038688269B5FBF2F33B
:10B4400002FB1353002B4AD1A24248D8B4FBF2F3BB
:10B4500002FB13430593E31A009304938468139B40
:10B460002A463146A04700287ED1BAF1000F29D0E4
:10B47000049B3BB3139B5C1E049B04EB0309139BCF
:10B4800005F10108A8EB030807E014F8012F9DF867
:10B490001F309A4266D14C4514D03B681A6A9642D6
:10B4A00008EB040363D2012202920DF11F02CDE9E1
:10B4B00000325146334600223846FFF749FE002845
:10B4C000E3D051DB139A049B059C11461944139158
:10B4D0001D44002CA9D1002009B0BDE8F08FEB1A63
:10B4E000CBE90063DBF80030B342A2D1DBF80410F3
:10B4F000A9429ED83A6892690A44AA4299D9A2EB15
:10B500000508A045DBF8080028BFA046691A0844D2
:10B510004246139909F094FE3868139982694544AC
:10B520004144B5FBF2F302FB1353A4EB080413915F
:10B53000002B7FF478AFDBF800104B1C3FF473AFA7
:10B540000092DBE90123D0F80880C04760B9524679
:10B5500059463846FFF770FE00283FF464AF09B043
:10B56000BDE8F08F6FF0330009B0BDE8F08F064BF7
:10B57000064A0748122109F0C9FD064B064A04484D
:10B58000B72109F0C3FD00BFD08A0300FC8C030083
:10B59000F08A03009C8B03000C8D03002DE9F04F13
:10B5A0000446D2E9003091B04FF0010B0A9300231A
:10B5B0000B90069104F114080DF1280905932368F6
:10B5C00059F8045B1B6A9D427BD210230DF1300AAF
:10B5D0000022CDE901A300922B4641462046FFF709
:10B5E000B7FD002839D1059B002B60D10D9B23F0BE
:10B5F0000043132B4FD92268D26993424BD84FF0A6
:10B60000FF3309A810225146099304F0BFFE0D9B99
:10B6100023F00043102B28D0CDF81C9010260DF1FC
:10B620002307994607E001360122394609A804F0AC
:10B63000ADFEB14517D023681B6A9D4241D201235C
:10B64000CDE9017300962B46002241462046FFF7C4
:10B650007FFD0028E7D0DDF81C9010F1340F1AD0E0
:10B6600011B0BDE8F08FDDF81C90099B9BB99AE8FA
:10B670000F000BF0010610AF07EB860C069F10269B
:10B68000FE603E467D601C365CF8185CBD6086E856
:10B690000F0001230593BBF1020F0FD1059B002B77
:10B6A00014BF00206FF0330011B0BDE8F08F069A90
:10B6B0000C9BD2699B1A002B98DAECE74FF0020B37
:10B6C0007DE7034B034A0448122109F01FFD00BF28
:10B6D000D08A0300FC8C0300F08A03004368013326
:10B6E00037D02DE9F0438368013383B0044628D076
:10B6F00015460E464FF000084FF001096A462946EC
:10B70000CDE90089FFF74AFFE0B905F124086B6A2B
:10B71000591C16D0AF6A7A1C13D0D6F800C09C45CD
:10B7200013D0D6F804E0BE450FD0734542462946F3
:10B7300020460AD0BC4508D0FFF730FF0028E6D0ED
:10B7400000E0002003B0BDE8F083012003B0BDE8B5
:10B75000F0830020704700BF2DE9F041D1F820C0F0
:10B760000C46C9682CF00043043B01F10C069E42D4
:10B7700084B0054617461FD904F12408102612E0AC
:10B78000424621462846FFF709FF90B9D4F820C069
:10B79000A169E6602CF00043043B14311B2BA1612E
:10B7A0004FF0100108D8BCF1000FE9DB39606FF0F1
:10B7B000010004B0BDE8F0812A46636852F8140B1A
:10B7C000066AB34207F104001AD20C26CDE9001034
:10B7D0000296114628460022FFF7BAFC0028E8D15D
:10B7E0007B79BA79FD79A16904331344E2683A6040
:10B7F0002B441A440B44E260A36104B0BDE8F0811D
:10B80000024B034A0348122109F080FCD08A03004E
:10B81000FC8C0300F08A0300F0B593B000260D46BF
:10B82000012707A96A46CDE900670446FFF7B6FE7F
:10B83000064610B121E0831C22D1109B01331CD09D
:10B84000119B013319D010AA07A92046FFF7A6FEC5
:10B85000B0B903AA07A92046FFF77EFF0028EAD166
:10B860009DF91030002B4FF00802294605A8F0DBA7
:10B8700009F0D8FC0028ECD10126304613B0F0BD09
:10B880000646304613B0F0BD2DE9F04716460024B9
:10B890000122C6E90942824688461D4606F124096E
:10B8A0004A4631465046FFF779FE074668B92A46B0
:10B8B00031465046FFF750FF50B1831C1FD1736AC9
:10B8C000013302D0B36A0133EAD13846BDE8F087CC
:10B8D0002C7904F07004202CE9D1AB68D8F8002052
:10B8E000934208D0E868D8F80410884203D08B420D
:10B8F00001D08242DBD101273846BDE8F0870746F8
:10B90000E3E700BF2DE9F04F2DED028B8DB090469F
:10B910001C46099340F622032268C8F804300892B6
:10B92000D0E90123724EC8F8082082468946C8F83B
:10B930000C3000F1140B089D314628460AF008FC33
:10B940002B46034404463146184605930AF0C0FBD3
:10B950000128049000F0B080022804D1059B1B78D8
:10B960002E2B00F0B280DDE90423134408931F4618
:10B970000124314638460AF0EBFB0744384631468D
:10B980000AF0A6FB78B1022802D001340744F0E7A0
:10B990003B782E2BF9D17B782E2BF6D1013CF5D1BB
:10B9A000BB1C0893C7E7059C207800285FD0099B43
:10B9B0001C6098F80430222B40F08D8008F10803B9
:10B9C0001A464946504608EE103AFFF7E7FD0028B0
:10B9D0004DD1049B013B23440793424649465046C0
:10B9E000FFF7BAFE002842D198F8042002F07F0346
:10B9F000112B01D0222BF0D198F8073004998B42FB
:10BA0000EBD1D8F8003098F8051098F80650D9F81E
:10BA1000047004330B441D44049BA3B3059BCDF871
:10BA200018800135DDF81C80ED1A5C1E07E014F863
:10BA3000012F9DF82F309A421ED144451FD0DAF8CD
:10BA400000301A6A974205EB040347D201220292A2
:10BA50000DF12F02CDE9003259463B4600225046F7
:10BA6000FFF776FB0028E2D0DDF8188009DA0DB088
:10BA7000BDEC028BBDE8F08FDDF81880ADE7DDF896
:10BA8000188098F8042013067FF555AFDAF80430D3
:10BA900001330CD0DAF80830013308D018EE101A50
:10BAA0005046FFF7B9FE00281ED198F8042002F096
:10BAB0007F0288F804203EE72B5D2E2B7FF453AFE6
:10BAC000DDE904231344089335E7059B5B782E2BAF
:10BAD0007FF449AFF4E76FF01300C8E7054B064A5F
